{
  "transactions": [
    {
      "hash": "0x723fa6fc5ba599ce7c87255a98e7d3def460ce80c951213e491dc4cc88791a55",
      "transactionType": "CALL",
      "contractName": "Shouter",
      "contractAddress": "0x285CaB75045B02553e6d2f1b1e2B077f5F8d083b",
      "function": "addYieldVault(address):(uint256)",
      "arguments": [
        "0xE9A9510bbF05a11a73Dd8DF611fD410D0645a0BB"
      ],
      "transaction": {
        "type": "0x02",
        "from": "0xe87b15cca8982d5b4121765e439d91f57c14f8c1",
        "to": "0x285cab75045b02553e6d2f1b1e2b077f5f8d083b",
        "gas": "0x17b50",
        "value": "0x0",
        "data": "0x2a101c00000000000000000000000000e9a9510bbf05a11a73dd8df611fd410d0645a0bb",
        "nonce": "0x10f",
        "accessList": []
      },
      "additionalContracts": [],
      "isFixedGasLimit": false
    }
  ],
  "receipts": [],
  "libraries": [],
  "pending": [
    "0x723fa6fc5ba599ce7c87255a98e7d3def460ce80c951213e491dc4cc88791a55"
  ],
  "returns": {},
  "timestamp": 1697943884,
  "chain": 5,
  "multi": false,
  "commit": "db39f17"
}