{
  "transactions": [
    {
      "hash": "0x723fa6fc5ba599ce7c87255a98e7d3def460ce80c951213e491dc4cc88791a55",
      "transactionType": "CALL",
      "contractName": "Shouter",
      "contractAddress": "0x285CaB75045B02553e6d2f1b1e2B077f5F8d083b",
      "function": "addYieldVault(address):(uint256)",
      "arguments": [
        "0xE9A9510bbF05a11a73Dd8DF611fD410D0645a0BB"
      ],
      "transaction": {
        "type": "0x02",
        "from": "0xe87b15cca8982d5b4121765e439d91f57c14f8c1",
        "to": "0x285cab75045b02553e6d2f1b1e2b077f5f8d083b",
        "gas": "0x17b50",
        "value": "0x0",
        "data": "0x2a101c00000000000000000000000000e9a9510bbf05a11a73dd8df611fd410d0645a0bb",
        "nonce": "0x10f",
        "accessList": []
      },
      "additionalContracts": [],
      "isFixedGasLimit": false
    }
  ],
  "receipts": [
    {
      "transactionHash": "0x723fa6fc5ba599ce7c87255a98e7d3def460ce80c951213e491dc4cc88791a55",
      "transactionIndex": "0x2",
      "blockHash": "0xc484efc11acd7b682cae6bec21cc6c7ea21697d9602711347226feb183d9817e",
      "blockNumber": "0x9733d0",
      "from": "0xe87b15cCA8982d5B4121765e439d91F57C14F8c1",
      "to": "0x285CaB75045B02553e6d2f1b1e2B077f5F8d083b",
      "cumulativeGasUsed": "0xc9fff",
      "gasUsed": "0x1129f",
      "contractAddress": null,
      "logs": [
        {
          "address": "0x285CaB75045B02553e6d2f1b1e2B077f5F8d083b",
          "topics": [
            "0xd1ef552d8bb31c8515f549beeff0850da0b1b6e29382a17ffd440b04160d1ace",
            "0x0000000000000000000000000000000000000000000000000000000000000001",
            "0x000000000000000000000000e9a9510bbf05a11a73dd8df611fd410d0645a0bb"
          ],
          "data": "0x",
          "blockHash": "0xc484efc11acd7b682cae6bec21cc6c7ea21697d9602711347226feb183d9817e",
          "blockNumber": "0x9733d0",
          "transactionHash": "0x723fa6fc5ba599ce7c87255a98e7d3def460ce80c951213e491dc4cc88791a55",
          "transactionIndex": "0x2",
          "logIndex": "0x5",
          "removed": false
        }
      ],
      "status": "0x1",
      "logsBloom": "0x00000200000000000000000000020000000000000000000000000000000000000000000000000000000000000000000000000000008000000000000000040000000000000000000000000000000000040000200000040000000000000000000000000000000000000000000000000000000000000000000000000000000000000000000000000000000000100000000000000000000000000000000000000100000000400000000000000000000000000000000000000000000000000000000000000000000000000000000000000000040000000000000000000000000040000000000000000000000000000000000000000000000000000000000000000000",
      "type": "0x2",
      "effectiveGasPrice": "0xb2d05e0e"
    }
  ],
  "libraries": [],
  "pending": [],
  "returns": {},
  "timestamp": 1697943891,
  "chain": 5,
  "multi": false,
  "commit": "db39f17"
}